:100000000C9434000C9446000C9446000C9446006A
:100010000C9446000C9446000C9446000C94460048
:100020000C9446000C9446000C9446000C94460038
:100030000C9446000C9446000C9446000C94460028
:100040000C9446000C9446000C9446000C94460018
:100050000C9446000C9446000C9446000C94460008
:100060000C9446000C94460011241FBECFEFD8E03C
:10007000DEBFCDBF21E0A0E0B1E001C01D92A13004
:10008000B207E1F70E9448000C9499000C9400001C
:1000900060E074E080E00E94720060E074E081E063
:1000A0000E9472008FE70E948D0088E70E949300F3
:1000B0008091000190E09093890080938800809166
:1000C000000190E090938B0080938A008091000162
:1000D0008F5F809300018FE39CE90197F1F700C0E7
:1000E0000000E6CF94B1926094B9882331F0E0E843
:1000F000F0E08081806C808305C0E0E8F0E08081E2
:1001000080688083E0E8F0E0808183608083E1E8BC
:10011000F0E0808185608083089590E0909389006D
:1001200080938800089590E090938B0080938A00DC
:060130000895F894FFCFD2
:00000001FF
